:060000000A128A11D62F3E
:100008007E088A007F08820004200A128A11800074
:10001800840A04087D0603190034FF0A0319FE0A3E
:10002800082883120313A001A10120087907FC0006
:100038007A08FB000318FB0AA01BFB037B08FD00E2
:100048007D0883120313FF007C0884000A128A15B6
:1000580000200A128A11003A0319080020087907BB
:10006800FC007A08FB000318FB0AA01BFB037B08B3
:10007800FD007D0883120313FF007C0884000A1228
:100088008A1500200A128A110A128A158F270A1265
:100098008A11013083120313A0070318A10A003044
:1000A800A107192800300A168A11E6270A128A11B0
:1000B8001C30F6004130F7007708803AFF008030A6
:1000C8007F02031D69280130760203187D2800008D
:1000D800FF30F6070318F70AFF30F7077708803A6A
:1000E800FF0080307F02031D7B2801307602031C4D
:1000F8006B2803300A128A158C250A128A112130BE
:10010800F5007630F400F40B8728F50B87280000FB
:1001180003300A128A158C250A128A114830F50014
:100128006C30F400F40B9628F50B96280000033089
:100138000A128A158C250A128A1102300A128A15A7
:100148008C250A128A1102300A128A158C250A1285
:100158008A1108300A128A158C250A128A11003071
:100168000A128A158C250A128A110C300A128A156D
:100178008C250A128A1100300A128A158C250A1257
:100188008A1106300A128A158C2508008312031377
:100198006A08AB006908AA006808A9006708A800EF
:1001A80020308400DC30F0000408F1000830F20050
:1001B8007008840083130008F300F00A71088400B3
:1001C80073088000F10AF20BDC28AE01AE0A2E0893
:1001D800031952290A168A115F270A128A11F00098
:1001E800700883120313AC00AF0104302F02031808
:1001F800EB282F08F0007007203E840083130008C6
:10020800F100840A0008F2002F08283E8400000844
:100218007107840072080318720AFF000A128A150F
:1002280000200A128A112C06031D48290130F0000B
:100238002F08283E84007008831380072F082C3E5F
:10024800840088300318013EFF000A128A15002036
:100258000A128A11F0002F08283E84008313000830
:100268007006031D4D292F08283E84008830031886
:10027800013EFF000A128A1500200A128A11F000B6
:100288007008AD00AE014D292F08283E8400831365
:1002980080010130F0007008AF07F9282D08080028
:1002A800F7007703031D792974087F3EF500750868
:1002B800FA007A08F50004300310F50CFF3E031D20
:1002C80060297508F6007608F8007A080F39F500F5
:1002D8007508F90078080A128A158C250A128A11FD
:1002E80079080A128A158C25080002307706031D42
:1002F8009E297408BF3EF5007508FA007A08F500D3
:1003080004300310F50CFF3E031D85297508F6001F
:100318007608F8007A080F39F5007508F9007808AA
:100328000A128A158C250A128A1179080A128A1566
:100338008C25080003307706031DC3297408933EF3
:10034800F5007508FA007A08F50004300310F50C7A
:10035800FF3E031DAA297508F6007608F8007A08FA
:100368000F39F5007508F90078080A128A158C25E6
:100378000A128A1179080A128A158C250800043095
:100388007706031D08007408D33EF5007508FA00C7
:100398007A08F50004300310F50CFF3E031DCF2941
:1003A8007508F6007608F8007A080F39F500750820
:1003B800F90078080A128A158C250A128A11790818
:1003C8000A128A158C2508002C3084008316031322
:1003D800350883138000840A36088000840A3708A9
:1003E8008000840A38088000840A39088000840A5A
:1003F8003A08800020308400D030F0000408F10072
:100408000C30F2007008840083130008F300F00A2F
:100418007108840073088000F10AF20B062A83121F
:100428000313B401B40A340803197E2A0A168A1180
:100438005F270A128A11F000700883120313B200B2
:10044800B501063035020318172A3508F000700781
:10045800203E840083130008F100840A0008F2009B
:1004680035082C3E840000087107840072080318C0
:10047800720AFF000A128A1500200A128A1132062F
:10048800031D742A0130F00035082C3E84007008E2
:10049800831380073508223E840088300318013E04
:1004A800FF000A128A1500200A128A11F000350886
:1004B8002C3E8400831300087006031D792A350832
:1004C8001C3E840088300318013EFF000A128A157A
:1004D80000200A128A11F0007008B300B401792ACA
:1004E80035082C3E8400831380010130F000700829
:1004F800B507252A33080800CE30F1008A30F2000B
:100508000A128A15C4250A128A11083083120313A5
:10051800A5009D30A4000530A300A30B912AA40BCD
:10052800912AA50B912A3030F1008830F2000A1286
:100538008A15C4250A128A114430F1008A30F20063
:100548000A128A15C4250A128A112630F100893048
:10055800F2000A128A15C4250A128A11A030F10085
:100568008830F2000A128A15C4250A128A116630E8
:10057800F1008930F2000A128A15C4250A128A117C
:10058800E330F1008830F2000A128A15C4250A12F5
:100598008A1183120313061DD52ADE30F100893033
:1005A800D82AA630F1008930F2000A128A15C4252B
:1005B8000A128A1102300A168A1192270A128A111F
:1005C800F401F40A02300A128A1154210A128A111B
:1005D800A430F9008B30FA000A128A1115200A1289
:1005E8008A119430F1008B30F2000A128A15C42562
:1005F8000A128A11033083120313A5008A30A4005B
:100608005530A300A30B062BA40B062BA50B062B1A
:100618009430F1008B30F2000A128A15C4250A12B0
:100628008A11033083120313A5008A30A4005530C1
:10063800A300A30B1D2BA40B1D2BA50B1D2B0230F8
:100648000A168A1192270A128A11F401F40A023052
:100658000A128A1154210A128A11B430F9008B3017
:10066800FA000A128A111520080083120313B20037
:100678002230AA002A08AE002108AB002008AA00F0
:10068800A00A0319A10A2B08FF002A0884000A12ED
:100698008A1500200A128A11AC002C08B30033080E
:1006A8000319312C253033060319662B3308AA00A9
:1006B800320884002A08831380000130AA002A081F
:1006C800B207402BAF016A2B2F17882B2108AB00EC
:1006D8002008AA00A00A0319A10A2B08FF002A086B
:1006E80084000A128A1500200A128A11B300003AFF
:1006F8000319312C643A0319882B0D3A0319882BF6
:100708001C3A0319682B402B2F1BA22B2E088400A0
:1007180083130008B000840A0008B1000230AA0060
:100728002A08AE07B11FAE2B0330AA002A08AF046F
:10073800B009B109B00A0319B10AAE2B2E0884001A
:1007480083130008B000840A0008B1000230AA0030
:100758002A08AE07B301B30A053033060319D92BAB
:100768003308AA002A07123E840088300318013E85
:10077800FF000A128A1500200A128A11AB000A1219
:100788008A1500200A128A11AC002C083102031DB8
:10079800CF2B2B083002031CD92B0130AA002A08C2
:1007A800B30705303306031DB42B2F08033903198B
:1007B800E82B2D30AA00320884002A088313800011
:1007C8000130AA002A08B2073308AA002A08AD0097
:1007D800FF30AA002A08AD072D0A0319402B0A305A
:1007E800F8000030F9002D08AA002A07123E8400FC
:1007F80088300318013EFF000A128A1500200A12E9
:100808008A11F0000A128A1500200A128A11F100D2
:100818003108F3003008F2000A128A1586260A12F7
:100828008A117108FB007008FA000A128A15182646
:100838000A128A117808303E83120313AB002B0882
:10084800B3003308AA00320884002A088313800002
:100858000130AA002A08B207EC2B3208840083135F
:10086800800108008B170B17831603131F109F14A2
:100878001F15081088100811881107128712871190
:1008880086120612061583120313861206120A121E
:100898008A1156200A128A110A168A11CE270A12BC
:1008A8008A110A168A1169270A128A11F401F40AB0
:1008B80001300A128A1154210A128A11C430F9002F
:1008C8008B30FA000A128A1115200A128A11273071
:1008D80083120313E2000D30E1002530E000E00B45
:1008E800732CE10B732CE20B732C7A2C83120313F9
:1008F800EF010B306F020318A92C86160616871510
:10090800A33083120313E1005430E000E00B8A2C7B
:10091800E10B8A2C0000831203138612061287113A
:10092800A33083120313E1005430E000E00B9A2C4B
:10093800E10B9A2C0000013083120313E0006008D9
:10094800EF070B306F02031C812C02300A168A1144
:1009580092270A128A11F401F40A02300A128A1143
:1009680054210A128A118330F9008B30FA000A12D6
:100978008A1115200A128A110D3083120313E2001E
:10098800AF30E100B530E000E00BC82CE10BC82C1B
:10099800E20BC82CCF2C0A168A11B9270A128A1121
:1009A800031CA92C0A128A1160250A128A11023026
:1009B8000A168A1192270A128A11F401F40A0230DF
:1009C8000A128A1154210A128A111C30F9008C303B
:1009D800FA000A128A1115200A128A111A30831293
:1009E8000313E2005E30E1006D30E000E00BFA2C0A
:1009F800E10BFA2CE20BFA2C012D83120313EB0105
:100A0800EC016C08803AFF0080307F02031D0E2D38
:100A180015306B020318552D031083120313871D1D
:100A28000314031C1B2D8312031387151E2D831219
:100A380003138711413083120313E100ED30E00006
:100A4800E00B242DE10B242D292D03108312031311
:100A5800871D0314031C342D831203138715372DA8
:100A6800831203138711413083120313E100ED3021
:100A7800E000E00B3D2DE10B3D2D422D01308312AE
:100A88000313EB070318EC0A0030EC076C08803AF4
:100A9800FF0080307F02031D532D15306B02031CAD
:100AA800112D0A128A1180220A128A110A128A1535
:100AB800C2260A128A11012D02300A168A119227BB
:100AC8000A128A11F401F40A02300A128A11542116
:100AD8000A128A110730F9008B30FA000A128A11BB
:100AE80015200A128A111A3083120313B8005E30D7
:100AF800B7006D30B600B60B7F2DB70B7F2DB80B46
:100B08007F2D862D01300A128A15A6250A128A1110
:100B180002300A168A1192270A128A11F401F40A7D
:100B280002300A128A1154210A128A114430F9003B
:100B38008C30FA000A128A1115200A128A112730FD
:100B480083120313B8000D30B7002530B600B60B7A
:100B5800AB2DB70BAB2DB80BAB2DB22D02300A164F
:100B68008A1192270A128A11F401F40A02300A1231
:100B78008A1154210A128A113E30F9008B30FA008A
:100B88000A128A1115200A128A111A3083120313C5
:100B9800B8005E30B7006D30B600B60BD12DB70B7C
:100BA800D12DB80BD12DD82D5530F1008D30F20054
:100BB8000A128A15C4250A128A110A128A11E82112
:100BC8000A128A11013A031D0F2E02300A168A11E1
:100BD80092270A128A11F401F40A02300A128A11C1
:100BE80054210A128A116930F9008C30FA000A126D
:100BF8008A1115200A128A111A3083120313B800B9
:100C08005E30B7006D30B600B60B082EB70B082E55
:100C1800B80B082E0F2E02300A168A1192270A12D4
:100C28008A11F401F40A02300A128A1154210A12B4
:100C38008A11E130F9008A30FA000A128A11152067
:100C48000A128A111A3083120313B8005E30B700F3
:100C58006D30B600B60B2E2EB70B2E2EB80B2E2EDF
:100C6800352ECB30F1008C30F2000A128A15C425DB
:100C78000A128A110A128A11E8210A128A11013A03
:100C8800031D6C2E02300A168A1192270A128A1145
:100C9800F401F40A02300A128A1154210A128A1144
:100CA8006930F9008C30FA000A128A1115200A12EC
:100CB8008A111A3083120313B8005E30B7006D3002
:100CC800B600B60B652EB70B652EB80B652E6C2ECD
:100CD80002300A168A1192270A128A11F401F40ABC
:100CE80002300A128A1154210A128A11BA30F90004
:100CF8008A30FA000A128A1115200A128A111A304B
:100D080083120313B8005E30B7006D30B600B60B1F
:100D18008B2EB70B8B2EB80B8B2E922E8030F400B7
:100D28008D30F5003730F6008C30F7000A128A153E
:100D3800E7250A128A11033083120313B8008A3098
:100D4800B7005530B600B60BA72EB70BA72EB80BB9
:100D5800A72E02300A168A1192270A128A11F40164
:100D6800F40A02300A128A1154210A128A117230C6
:100D7800F9008B30FA000A128A1115200A128A111A
:100D88001A3083120313B8005E30B7006D30B60016
:100D9800B60BCC2EB70BCC2EB80BCC2ED32E5C308A
:100DA8000A128A1526270A128A11D43083120313CD
:100DB800A0008B30A1005C08B600B7013608A2007D
:100DC8003708A3005D08B800B9013808A40039083D
:100DD800A5005E08BA00BB013A08A6003B08A700B8
:100DE8005F08BC00BD013C08A8003D08A9003E30D2
:100DF8000A128A1139230A128A1104300A168A1132
:100E080092270A128A11F401F40A04300A128A118C
:100E180054210A128A113E30F9000030FA000A12F1
:100E28008A1115200A128A111A3083120313B80086
:100E38005E30B7006D30B600B60B202FB70B202FF1
:100E4800B80B202F272F02300A168A1192270A1270
:100E58008A11F401F40A02300A128A1154210A1282
:100E68008A110E30F9008C30FA000A128A11152006
:100E78000A128A111A3083120313B8005E30B700C1
:100E88006D30B600B60B462FB70B462FB80B462F62
:100E98004D2FE430F1008B30F2000A128A15C42578
:100EA8000A128A110A128A11E8210A128A11013AD1
:100EB800031D842F02300A168A1192270A128A11FA
:100EC800F401F40A02300A128A1154210A128A1112
:100ED8002530F9008D30FA000A128A1115200A12FD
:100EE8008A111A3083120313B8005E30B7006D30D0
:100EF800B600B60B7D2FB70B7D2FB80B7D2F842F37
:100F080002300A168A1192270A128A11F401F40A89
:100F180002300A128A1154210A128A11F430F90097
:100F28008A30FA000A128A1115200A128A111A3018
:100F380083120313B8005E30B7006D30B600B60BED
:100F4800A32FB70BA32FB80BA32FAA2F0A168A110A
:100F580074270A128A1102300A168A1192270A1275
:100F68008A11F401F40A02300A128A1154210A1271
:100F78008A119130F9008A30FA000A128A11152074
:100F88000A128A111A3083120313B8005E30B700B0
:100F98006D30B600B60BCE2FB70BCE2FB80BCE2FB9
:100FA800D52F08008313E430FD001730FE00A5306C
:100FB800FF00D03084000A128A1108200A128A1110
:100FC800831790308400AE300A168A1157270A1208
:100FD8008A118313A0308400D0300A168A1157274B
:100FE8000A128A116330840070300A168A11572752
:100FF80083010A128A11362CFF1B0A2883137F18D3
:1010080083170008840A0319FF0A08007F087F393C
:101018008A000408840A0319FF0A82000134003494
:101028000A34003464340034E83403341034273488
:1010380001340234033404340534063402340534EC
:1010480004340934063406340434033402340134D5
:1010580005340534053405343C34683474346D344F
:101068006C343E343C3468346534613464343E3422
:101078003C347434693474346C3465343E345034DC
:10108800483449344C345334453451345534453458
:101098003C342F347434693474346C3465343E34DD
:1010A8003C346D34653474346134203468347434B9
:1010B800743470342D34653471347534693476344D
:1010C8003D34223472346534663472346534733492
:1010D80068342234203463346F346E3474346534A5
:1010E8006E3474343D3422343334223420343E3464
:1010F8003C342F3468346534613464343E343C34D1
:10110800683431343E3443344F344E3454345234DA
:101118004F344C3445342034573445344234203429
:101128004C344534443421343C342F34683431341D
:101138003E340D340A3400343C3470343E343C348C
:1011480069346E34703475347434203474347934BA
:10115800703465343D3422347334753462346D34FC
:1011680069347434223420346E3461346D34653417
:101178003D34223442346F343134223420347634CE
:1011880061346C34753465343D342234323422345D
:1011980020343E3420344434653473346C34693438
:1011A80067346134723420346C34653464343134D7
:1011B8003C342F3470343E340D340A3400343C341B
:1011C80070343E343C3469346E347034753474345D
:1011D800203474347934703465343D3422347334B3
:1011E800753462346D3469347434223420346E3486
:1011F80061346D3465343D34223442346F343134D3
:1012080022342034763461346C34753465343D349A
:1012180022343434223420343E3420344434653487
:1012280073346C34693467346134723420346C3408
:101238006534643432343C342F3470343E340D34E5
:101248000A3400343C3470343E343C3469346E34EF
:1012580070347534743420347434793470346534AB
:101268003D3422347334753462346D3469347434E3
:10127800223420346E3461346D3465343D34223484
:1012880042346F34313422342034763461346C344F
:10129800753465343D3422343134223420343E34BC
:1012A80020344C34693467346134723420346C34FB
:1012B8006534643431343C342F3470343E340D3466
:1012C8000A3400343C3470343E343C3469346E346F
:1012D800703475347434203474347934703465342B
:1012E8003D3422347334753462346D346934743463
:1012F800223420346E3461346D3465343D34223404
:1013080042346F34313422342034763461346C34CE
:10131800753465343D3422343334223420343E3439
:1013280020344C34693467346134723420346C347A
:101338006534643432343C342F3470343E340D34E4
:101348000A3400343C3470343E3442346F347434DC
:10135800E3346F34203473346F346C3474346F3442
:101368002034283450346F34723474346134203467
:101378005234423432342934213420342034203455
:10138800203420342034203420343C342F3470343A
:101398003E343C342F3462346F34643479343E3410
:1013A8003C342F34683474346D346C343E340D342A
:1013B8000A3400343C3470343E3442346F3474346C
:1013C800E3346F34203470347234653473347334D6
:1013D80069346F346E34613464346F3420342834A3
:1013E80050346F347234743461342034523442349B
:1013F800323429342134203420343C342F347034AE
:101408003E343C342F3462346F34643479343E349F
:101418003C342F34683474346D346C343E340D34B9
:101428000A340034413454342B344334493450346E
:10143800533454344134523454343D3434342C34D9
:10144800223454344334503422342C3422346D340E
:10145800613469346C342E3473346D3474347034BC
:10146800323467346F342E3463346F346D3422343D
:101478002C3432343534323435340D340A340034B3
:101488003C3462346F34643479343E343C347034E0
:101498003E343C3466346F3472346D3420346D34E9
:1014A8006534743468346F3464343D3422344734DA
:1014B8004534543422343E343C342F3470343E3472
:1014C8000D340A340034453448344C344F34203415
:1014D8003134393432342E343134363438342E34CD
:1014E80031342E343134323433340D340A34003448
:1014F8002034203420342034203420342034203444
:101508002034203420342034203420342034203433
:101518002034203420342034003453346534723479
:101528007634693464346F347234203450346F3410
:1015380072347434613420343834303420344F34C5
:101548004B340034413454342B344334493450340C
:101558005334453452345634453452343D3431349E
:101568002C34383430340D340A34003443346F3476
:101578006E3465346334743461346E3464346F3477
:101588002034613420344334453450342E342E34DE
:101598002E340034413454342B34433449345034D9
:1015A800533445344E3444343D3430342C3434349C
:1015B800343432340D340A3400344534533450341E
:1015C80020347234653469346E3469346334693470
:1015D80061346E3464346F342E342E342E34003437
:1015E80043347234693461346E3464346F34203473
:1015F8005334653472347634693464346F347234F5
:101608002E342E34003449346E34693463346934EA
:1016180061346E3464346F3420346D346F34643420
:101628006F34203453345434413400344134543406
:101638002B34433449345034533445344E344434D1
:101648003D3434342C34323430340D340A340034DC
:10165800413454342B3443344934503453344534AE
:101668004E3444343D3434342C34313432340D3433
:101678000A34003454346534733474346534203493
:1016880043346F346D3461346E3464346F343A34B7
:101698002034413454340034413454342B344334EA
:1016A80049345034533445344E3444343D3434345E
:1016B8002C3433340D340A340034413454342B344C
:1016C800433449345034533445344E3444343D342F
:1016D80034342C3436340D340A34003443346F3403
:1016E8006E34653463347434613464346F34203454
:1016F8006134203443344534503421340034453483
:1017080053345034203464346534733463346F3460
:101718006E34653463347434613464346F34003443
:10172800413454342B3443344934503443344C34E6
:101738004F34533445343D3430340D340A34003496
:1017480050346134673469346E346134203465341C
:101758006E3476346934613464346134213400344D
:1017680057346534623420346434693473347034E3
:101778006F346E346934763465346C342134003413
:1017880045345334503438343234363436342034D3
:1017980063346F346D342034503449344334003466
:1017A800493450343A342034253464342E342534C2
:1017B80064342E34253464342E34253464340034AF
:1017C800413454342B344334493450344D34553433
:1017D80058343D3431340D340A34003441345434EF
:1017E8002B34433449345034533454344134523410
:1017F80054343D3422340034413454342B3443348B
:1018080049345034533445344E3444343D343434FC
:101818002C34003449346E346934633469346134A7
:101828006E3464346F3420344D34553458340034B5
:10183800453453345034203463346F346E34653453
:1018480063347434613464346F340034413455344F
:101858005434483420344C344F34473449344E34AB
:101868000D340A34003430343334303434343234C0
:101878003034313437344C3455344E3441340034F8
:1018880045345334503420346D346F3464346F34F9
:10189800203453345434413400344D3441344934C1
:1018A8004C342034463452344F344D343A343C347A
:1018B8000034413454342B34433449345034533491
:1018C80045344E3444343D34003452346534633442
:1018D80065346234693464346F3420344F344B34A3
:1018E8000034413454342B34433457344C34493461
:1018F80046340D340A340034413454342B344334E0
:1019080057345134413450340D340A34003441349E
:1019180054342B34433449344634533452340D341C
:101928000A340034413454342B34433457344A3461
:10193800413450343D3422340034413454342B344F
:10194800433457345334413450343D342234003412
:10195800413454342B34433457344D344F344434A5
:1019680045343D34003452344334503454342034F4
:1019780054346F343A343C3400346E346F34203489
:101988006334683461346E34673465340034413408
:1019980054342B345234533454340D340A34003410
:1019A8004C3445344434313420344F344E342034AC
:1019B80000344C3445344434323420344F344E34BB
:1019C800203400345334753462346A3465346334F3
:1019D80074343A3400344C3445344434313420348B
:1019E8004F344634463400344C344534443432346D
:1019F80020344F3446344634003422342C343534C1
:101A08002C3433340D340A340034443441345434DF
:101A180041340D340A340034513455344934543483
:101A28000D340A3400344C3469346E346B34653404
:101A38006434003455346E346C3469346E346B3429
:101A480000344D345534583420346F346B340034FA
:101A58002B344934503444342C34003442346F34F9
:101A680031343D343134003442346F3431343D3410
:101A78003234003442346F3431343D34333400343A
:101A880042346F3431343D34343400347234653484
:101A980061346434793400340D340A340D340A3432
:101AA8000034413454340D340A3400344D34413454
:101AB80043343A3400344634413449344C340034E5
:101AC80022340D340A3400342E340D340A340034F0
:101AD80022342C3422340034493450343A3400341B
:101AE800413454344534003454344334503400348D
:101AF800553444345034003443344534503400347D
:0C1B080022342C340034253475340034B1
:101B1800F30083120313081173080A168A11E627C3
:101B28000A128A158312031388151A30F200F83046
:101B3800F100F10B9D2DF20B9D2D00008312031374
:101B480088110800F400AC30F1008C30F2000A1261
:101B58008A15C4250A128A157408303E0A168A1195
:101B68004F270A128A155230F1008D30F2000A12FE
:101B78008A15C4250A128A150A128A11E821080052
:101B8800720883120313FF00710884000A128A1571
:101B980000200A128A15003A0319080072088312F5
:101BA8000313FF00710884000A128A1500200A1224
:101BB8008A150A168A114F270A128A150130F10769
:101BC8000318F20AC42D9630F1008C30F2000A1284
:101BD8008A15C4250A128A157408F1007508F200DE
:101BE8000A128A15C4250A128A156C30F1008D3044
:101BF800F2000A128A15C4250A128A157608F1001D
:101C08007708F2000A128A15C4250A128A15643068
:101C1800F1008D30F2000A128A15C4250A128A15BD
:101C28000A128A11E8210800780879040319452E58
:101C3800FD01FD0AF91B2C2E01300310F80DF90DDA
:101C4800FF3E031D212E0130FC007C08FD071E2EDF
:101C580079087B02031D322E78087A02031C3A2E7B
:101C68007808FA027908031CFB03FB020130031011
:101C7800F90CF80CFF3E031D3B2E0130FD02031D3D
:101C88002C2E7B08F9007A08F8000800F601F30109
:101C9800F4010A168A115F270A128A15F2007208DF
:101CA800F5000130F3070318F40A0030F40776084A
:101CB8007007840071080318710A83120313FF0068
:101CC8000A128A1500200A128A157506031D712E3C
:101CD8000130F2007208F607722EF60176087007D6
:101CE800840071080318710AFF000A128A1500207F
:101CF8000A128A15003A031D4D2E7408F100730864
:101D0800F0000800F501F601700871040319BD2EF2
:101D1800F701F70AF11B9C2E01300310F00DF10DAD
:101D2800FF3E031D912E0130F4007408F7078E2E34
:101D380001300310F50DF60DFF3E031D9D2E7108B1
:101D48007302031DA92E70087202031CB22E7008BC
:101D5800F2027108031CF303F30275140130031037
:101D6800F10CF00CFF3E031DB32E0130F702031DEA
:101D78009C2E7608F1007508F0000800132F8312D6
:101D880003138616F401F40A03300A128A11542147
:101D98000A128A15D430F9008C30FA000A128A1116
:101DA80015200800831203138612F401F40A033085
:101DB8000A128A1154210A128A15EF30F9008C3060
:101DC800FA000A128A111520080083120313061656
:101DD8000B30B0003008F40003300A128A11542185
:101DE8000A128A15DD30F9008C30FA000A128A11BD
:101DF800152008008312031306120B30B0003008B8
:101E0800F40003300A128A1154210A128A15F83094
:101E1800F9008C30FA000A128A11152008000A12FB
:101E28008A11CA200A128A15013A0319C32E033AE5
:101E38000319D62E013A0319E92E073A0319FE2E83
:101E4800252F0800FB008B30F1008C30F2000A12BD
:101E58008A15C4250A128A150A168A115F270A12DA
:101E68008A15F7007708FD0030307D02031C302FFB
:101E78003A307D020318302FFC0104307C0203182D
:101E8800872F7C087B07F70077088400831380017D
:101E98000A30F7007708F0007C087B07F80078081C
:101EA8008400831300080A168A1181270A128A15EA
:101EB8007D07D03EF9007C087B07FA007A08840089
:101EC8007908831380000A168A115F270A128A1577
:101ED800F7007708FD0030307D02031C772F3A3079
:101EE8007D02031C4C2F0A168A115F270A128A15D5
:101EF800F7007708FD000130F7007708FC07043089
:101F08007C02031C452FA330F0008A30F1000A122E
:101F18008A154A260800F40074080F39F100710880
:101F2800F2007408F039F1007108F300831203130A
:101F380008157308F10004300310F10CFF3E031D6F
:101F4800A02F71080A168A11E6270A128A15831229
:101F5800031388153330F5008230F6007608803A8E
:101F6800FF0080307F02031DBB2F0130750203186C
:101F7800CF2F0000FF30F5070318F60AFF30F607E9
:101F88007608803AFF0080307F02031DCD2F013094
:101F98007502031CBD2F83120313881172080A16D9
:101FA8008A11E6270A128A1583120313881533301B
:101FB800F7008230F8007808803AFF0080307F020E
:101FC800031DE82F013077020318FC2F0000FF30B3
:101FD800F7070318F80AFF30F8077808803AFF0077
:101FE80080307F02031DFA2F01307702031CEA2F8D
:081FF800831203138811080095
:102E9E00F000831203130C1E502F700899000800C7
:102EAE0064008001840A0406031900340406582FB6
:102EBE0083120313981C652F181218168C1E652F7B
:102ECE001A08080000300A128A158C250A168A1173
:102EDE0001300A128A158C250800A630F1008A30BE
:102EEE00F2000A128A15C4250A168A110A128A11CC
:102EFE00E8210800F300F201731C892F7008F1001D
:102F0E007108F2070310F00D0310F30C7308031D84
:102F1E00832F7208080083120313A200F401F40A2F
:102F2E0022080A128A1154210A168A117C30F900DD
:102F3E008A30FA000A128A1115200800A3348A3446
:102F4E004A348D345F348D34C1348C3417348D341F
:102F5E001E348D3444348D343E348D3438348D34B7
:102F6E0032348D345530F1008D30F2000A128A154C
:102F7E00C4250A168A110A128A11E8210A168A1124
:102F8E00013A0319CC2F031008000314080083160E
:102F9E000313071387170A30990018151812831296
:102FAE000313981783160313981683120313181618
:102FBE008316031318138312031318130800F0005B
:102FCE00701CED2F831203130716F02F83120313B9
:102FDE000712F01CF42F8716F52F8712701DF92F8C
:102FEE000814FA2F0810F01DFE2F88140800881000
:022FFE000800C9
:02400E003A3F37
:00000001FF
